S00C0000546573742E7372656378
S11300000C9449000C9488040C9402020C9466002D
S11300100C9466000C9466000C9466000C946600C4
S11300200C9466000C9466000C9466000C946600B4
S11300300C9466000C9466000C9466000C946600A4
S11300400C9466000C9466000C9466000C94660094
S11300500C946600EB02F102F702FD0203030903AC
S11300600F03150319031F0325032B033103560341
S11300705C03CF0305A84CCDB2D44EB93836A902DF
S11300800C50B9918688083CA6AAAA2ABE00000092
S1130090803F11241FBECFE5D8E0DEBFCDBF11E005
S11300A0A0E6B0E0E6EEF4E102C005900D92AC30BB
S11300B0B107D9F721E0ACE0B1E001C01D92A6314F
S11300C0B207E1F70E94E4030C94710A0C94000057
S11300D095B39F70282F207F922B95BB95B39E7F5D
S11300E095BB95B3926095BB32E03A95F1F700C0A9
S11300F095B39D7F95BBEFE8F1E03197F1F700C030
S1130100000025B3F0E18F9FC0011124922F9F704E
S1130110892B85BB85B3826085BB32E03A95F1F7C4
S113012000C085B38D7F85BB8FE99FE00197F1F710
S113013000C00000089595B39F70282F207F922B54
S113014095BB95B3916095BB95B3926095BB32E036
S11301503A95F1F700C095B39D7F95BBEFE8F1E0C8
S11301603197F1F700C0000025B3F0E18F9FC00183
S11301701124922F9F70892B85BB85B3826085BB28
S113018032E03A95F1F700C085B38D7F85BB8FE9E6
S11301909FE00197F1F700C0000008958FEF84BB42
S11301A08FE39CE90197F1F700C0000082E00E9410
S11301B0680088E20E9468008CE00E94680086E083
S11301C00E94680081E00E946800089581E00E9416
S11301D0680082E00E94680008950F931F93CF93F4
S11301E0DF938C01C0E0D0E003C00E949B00219605
S11301F0F801EC0FFD1F80818111F7CFDF91CF91C2
S11302001F910F910895CF93DF938130910509F0E9
S113021056C04EC082B38F7B82BB82B3806282BBE6
S11302202FEF49E688E1215040408040E1F700C0CB
S1130230000082B38F7D82BB9FEF29E648E1915095
S113024020404040E1F700C0000080910E01813061
S113025099F40E94E60088E690E00E94ED0080E0B8
S113026090E00E94030110920E0181E090E09093CF
S1130270100180930F015CC0C430D105B9F48091A2
S11302800E01811113C010920E01109210011092F0
S11302900F010E94E60082E790E00E94ED0080ECEE
S11302A00E94680082E090E00E940301219602C04F
S11302B0C0E0D0E0C530D1050CF4ACCF39C0009714
S11302C039F482B38F7B82BB82B3806282BB30C03D
S11302D08230910539F482B38F7D82BB82B380640E
S11302E082BB26C0039721F51EC082B38F7D82BBDB
S11302F082B3806482BB8FEF99E648E181509040DD
S11303004040E1F700C0000082B38F7B82BB8FEFD7
S113031099E648E1815090404040E1F700C0000078
S11303202F5F3F4F02C020E030E025303105ECF272
S1130330DF91CF910895EF92FF920F931F93CF9384
S1130340DF93CDB7DEB7E2970FB6F894DEBF0FBEEA
S1130350CDBF0E94E6008EE790E00E94ED0080ECA5
S11303600E94680080911101909112010197E9F5B2
S113037020C0F801EC59FF4F80811F928F938FE8C2
S113038090E09F938F937E0189E2E80EF11CFF9227
S1130390EF920E946007B701CE0101960E945507B3
S11303A00F5F1F4F0F900F900F900F900F900F90B3
S11303B002C000E010E004301105DCF28E010F5F92
S11303C01F4FC8010E94ED00E4E6F0E08FEF9FEFBD
S11303D0918380839383828388E2F80111928A95C2
S11303E0E9F71092120110921101E2960FB6F894F7
S11303F0DEBF0FBECDBFDF91CF911F910F91FF9054
S1130400EF9008951F920F920FB60F9211242F931D
S11304103F934F935F936F937F938F939F93AF9388
S1130420BF93EF93FF932FE788E391E0215080403F
S11304309040E1F700C00000839B2BC080910E0127
S113044081111AC080910F01909110010197A1F4BC
S113045010920E011092100110920F010E94E600FA
S113046082E790E00E94ED0080EC0E94680082E048
S113047090E00E9403010DC080910E01811109C01A
S113048080910F0190911001892B19F481E08093E0
S11304900E018AB780688ABFFF91EF91BF91AF9137
S11304A09F918F917F916F915F914F913F912F9188
S11304B00F900FBE0F901F901895CF92DF92EF927E
S11304C0FF920F931F93CF93DF9381B3806881BB17
S11304D083B7896683BFC0E0D0E000E213E03AC08E
S11304E0B801012E000C880B990B0E94C60523EC61
S11304F035EF48EC50E40E9452066B017C01BE01CA
S11305000D2E000C880B990B0E94C605A7019601BD
S11305100E94520620E030E04AE754E40E9423059A
S11305200E94BF0620E030E04EEF52E40E945206E3
S113053020E030E040E053E40E94B7040E949505B7
S11305406CBF8FE19EE40197F1F700C000000E5CE0
S11305501F4F2196CA3FD1051CF283B7867983BF0A
S113056082B38F7782BBDF91CF911F910F91FF9060
S1130570EF90DF90CF90089544E050E060E070E0A9
S113058080E690E00E94130A80E090E010C0FC0135
S1130590EC59FF4F3081FC01E05AFF4F20813217A4
S11305A029F00E945D028FEF9FEF08950196843039
S11305B091056CF381E090E00895829BFECFE6B351
S11305C08E2F90E08031910508F0EFC0FC01E65DCC
S11305D0FF4F0C944F0782E990E00E94ED0087E002
S11305E0E9C082E990E00E94ED0088E0E3C082E97E
S11305F090E00E94ED0089E0DDC084E990E00E9473
S1130600ED008FEFD7C082E990E00E94ED0084E016
S1130610D1C082E990E00E94ED0085E0CBC082E980
S113062090E00E94ED0086E0C5C00E949B018FEF20
S1130630C1C082E990E00E94ED0081E0BBC082E984
S113064090E00E94ED0082E0B5C082E990E00E9453
S1130650ED0083E0AFC086E990E00E94ED008FEFEB
S1130660A9C080910F0190911001019709F09FC0DA
S11306700E94E60088E990E00E94ED0080EC0E9470
S1130680680080E090E00E9403012FEF39E688E1E2
S1130690215030408040E1F700C0000081E090E04C
S11306A090930D0180930C018FEF84C082E990E058
S11306B00E94ED0080E07EC080910C0190910D01BC
S11306C0892B99F40E94BC02019679F40E94E600F9
S11306D088EA90E00E94ED0083E090E00E9403012C
S11306E080EC0E9468008FEF65C080910C019091AE
S11306F00D01892B81F40E94BC02019761F40E94D0
S1130700E60088EB90E00E94ED0081E090E00E941A
S113071003018FEF4FC080910C0190910D0101975F
S113072009F047C080910F0190911001019761F089
S11307308FEF40C0FC01EC59FF4F2081FC01E05ACF
S1130740FF4F2083019602C080E090E08430910541
S11307508CF310920D0110920C010E94E60089ECBA
S113076090E00E94ED0044E050E060E070E084E638
S113077090E00E94230A3FEF89E698E131508040DF
S11307809040E1F700C000000E94E6008EE790E090
S11307900E94ED0080EC0E9468008FEF0BC086ED94
S11307A090E00E94ED008FEF05C08FEF03C08FEF44
S11307B001C08FEF2FEF34E39CE021503040904094
S11307C0E1F700C00000089581B3806681BB81B366
S11307D0806881BB0E94CE008EE790E00E94ED000D
S11307E080EC0E94680082E090E00E9403018BB7D5
S11307F0806C8BBF85B78D6085BF789480910C0128
S113080090910D01892BD1F70E94DD02809315018F
S1130810809115018F3F91F3809113019091140100
S113082020911501FC01EC59FF4F20830196909310
S1130830140180931301049709F710921401109284
S1130840130181E090E09093120180931101D6CFBF
S1130850CF93DF93C0E0D0E00E94DD0280931501C6
S1130860809115018F3FC1F380911501FE01EC5970
S1130870FF4F80832196C430D10571F7DF91CF916A
S113088008950E94E60088ED90E00E94ED0080EC5F
S11308900E9468000E9428040E94BC02019791F4FF
S11308A00E94E6008BEE90E00E94ED0080EC0E9436
S11308B0680081E090E090930D0180930C010E9408
S11308C0280408950E94BC02019609F50E94E600DE
S11308D08CEF90E00E94ED008FEF99E628E18150C3
S11308E090402040E1F700C000000E94E60088E646
S11308F090E00E94ED0080E090E00E9403011092DD
S11309000E0181E090E09093100180930F0108950F
S11309101F920F920FB60F9211242F933F934F9370
S11309205F936F937F938F939F93AF93BF93EF9353
S1130930FF9380910C0190910D01019731F4109275
S11309401401109213010E944104FF91EF91BF9191
S1130950AF919F918F917F916F915F914F913F9153
S11309602F910F900FBE0F901F9018955058BB27D2
S1130970AA270E94CE040C9418060E940A0638F096
S11309800E94110620F039F49F3F19F426F40C94C8
S113099007060EF4E095E7FB0C940106E92F0E948C
S11309A0290658F3BA17620773078407950720F0DE
S11309B079F4A6F50C944B060EF4E0950B2EBA2FA1
S11309C0A02D0B01B90190010C01CA01A001112451
S11309D0FF27591B99F0593F50F4503E68F11A16FD
S11309E0F040A22F232F342F4427585FF3CF46958E
S11309F037952795A795F0405395C9F77EF41F16B0
S1130A00BA0B620B730B840BBAF09150A1F0FF0F79
S1130A10BB1F661F771F881FC2F70EC0BA0F621F65
S1130A20731F841F48F4879577956795B795F79555
S1130A309E3F08F0B0CF9395880F08F09927EE0FEA
S1130A409795879508950E9437050C9418060E947F
S1130A50110658F00E940A0640F029F45F3F29F07D
S1130A600C94010651110C944C060C9407060E9438
S1130A70290668F39923B1F3552391F3951B550B7C
S1130A80BB27AA2762177307840738F09F5F5F4F5D
S1130A90220F331F441FAA1FA9F335D00E2E3AF09C
S1130AA0E0E832D091505040E695001CCAF72BD0B4
S1130AB0FE2F29D0660F771F881FBB1F2617370705
S1130AC04807AB07B0E809F0BB0B802DBF01FF2737
S1130AD093585F4F3AF09E3F510578F00C9401060D
S1130AE00C944C065F3FE4F3983ED4F386957795D7
S1130AF06795B795F7959F5FC9F7880F911D9695F0
S1130B00879597F90895E1E0660F771F881FBB1F4B
S1130B10621773078407BA0720F0621B730B840BF8
S1130B20BA0BEE1F88F7E09508950E94310688F00D
S1130B309F5798F0B92F9927B751B0F0E1F0660F9D
S1130B40771F881F991F1AF0BA95C9F714C0B130DE
S1130B5091F00E944B06B1E008950C944B06672F68
S1130B60782F8827B85F39F0B93FCCF3869577950D
S1130B706795B395D9F73EF49095809570956195F6
S1130B807F4F8F4F9F4F0895E89409C097FB3EF421
S1130B9090958095709561957F4F8F4F9F4F9923C6
S1130BA0A9F0F92F96E9BB279395F6958795779544
S1130BB06795B795F111F8CFFAF4BB0F11F460FF04
S1130BC01BC06F5F7F4F8F4F9F4F16C0882311F05C
S1130BD096E911C0772321F09EE8872F762F05C070
S1130BE0662371F096E8862F70E060E02AF09A950B
S1130BF0660F771F881FDAF7880F9695879597F900
S1130C00089597F99F6780E870E060E008959FEF8A
S1130C1080EC089500240A9416161706180609068F
S1130C20089500240A94121613061406050608955E
S1130C30092E0394000C11F4882352F0BB0F40F4E6
S1130C40BF2B11F460FF04C06F5F7F4F8F4F9F4F26
S1130C50089557FD9058440F551F59F05F3F71F0A8
S1130C604795880F97FB991F61F09F3F79F087950F
S1130C700895121613061406551FF2CF4695F1DF98
S1130C8008C0161617061806991FF1CF8695710528
S1130C90610508940895E894BB2766277727CB015C
S1130CA097F908950E9465060C9418060E940A0696
S1130CB038F00E94110620F0952311F00C940106DF
S1130CC00C94070611240C944C060E94290670F318
S1130CD0959FC1F3950F50E0551F629FF001729FDD
S1130CE0BB27F00DB11D639FAA27F00DB11DAA1FEC
S1130CF0649F6627B00DA11D661F829F2227B00D39
S1130D00A11D621F739FB00DA11D621F839FA00DC3
S1130D10611D221F749F3327A00D611D231F849F13
S1130D20600D211D822F762F6A2F11249F5750406A
S1130D309AF0F1F088234AF0EE0FFF1FBB1F661FE5
S1130D40771F881F91505040A9F79E3F510580F0AE
S1130D500C9401060C944C065F3FE4F3983ED4F3E4
S1130D60869577956795B795F795E7959F5FC1F752
S1130D70FE2B880F911D9695879597F908959F935B
S1130D800E94C9060F9007FCEE5F0C94F2060C94C7
S1130D9007060E943106D8F3E894E0E0BB279F578A
S1130DA0F0F02AED3FE049EC06C0EE0FBB0F661FE2
S1130DB0771F881F28F0B23A62077307840728F068
S1130DC0B25A620B730B840BE3959A9572F78038D1
S1130DD030F49A95BB0F661F771F881FD2F790488F
S1130DE00C940807EF93E0FF07C0A2EA2AED3FE066
S1130DF049EC5FEB0E94CE040E9418060F90039406
S1130E0001FC9058E4E7F0E00C9414079F3F31F0A4
S1130E10915020F4879577956795B795880F911D24
S1130E209695879597F908959F938F937F936F93E2
S1130E30FF93EF939B01AC010E945206EF91FF9147
S1130E400E9428072F913F914F915F910C94520675
S1130E50DF93CF931F930F93FF92EF92DF927B0167
S1130E608C01689406C0DA2EEF010E946506FE012B
S1130E70E894A5912591359145915591A6F3EF01FB
S1130E800E94CE04FE019701A801DA9469F7DF906D
S1130E90EF90FF900F911F91CF91DF910895EE0F86
S1130EA0FF1F0590F491E02D0994FB01DC010D90E6
S1130EB00020E9F7119701900D920020E1F70895C1
S1130EC0AEE0B0E0E6E6F7E00C94480A0D891E892E
S1130ED086E08C831A8309838FEF9FE79E838D833B
S1130EE0AE01475E5F4F6F89788DCE0101960E94F7
S1130EF08207EF81F885E00FF11F10822E96E4E05F
S1130F000C94640AABE0B0E0E8E8F7E00C943A0A29
S1130F106C017B018A01FC0117821682838181FFA7
S1130F20CCC1CE0101963C01F6019381F70193FDFA
S1130F30859193FF81917F01882309F4BAC1853299
S1130F4039F493FD859193FF81917F01853229F4D2
S1130F50B60190E00E947909E7CF912C212C312C25
S1130F60FFE1F315D8F08B3279F038F4803279F060
S1130F708332A1F4232D20611DC08D3261F08033B2
S1130F8069F4232D216016C0832D8260382EE32D51
S1130F90E4603E2E2AC0F32DF8601DC037FC2DC03E
S1130FA020ED280F2A3040F08E32B9F436FC81C18E
S1130FB0232D2064322E19C036FE06C08AE0989E86
S1130FC0200D1124922E11C0EAE02E9E200D112432
S1130FD0222EF32DF0623F2E08C08C3621F4832D8F
S1130FE08068382E02C0883641F4F70193FD85915C
S1130FF093FF81917F018111B3CF982F9F7D9554E9
S1131000933028F40C5F1F4F9FE399830DC0833600
S113101031F0833771F0833509F059C021C0F801EC
S1131020808189830E5F1F4F88248394912C530100
S113103013C02801F2E04F0E511CF801A080B180CA
S113104036FE03C0692D70E002C06FEF7FEFC5016B
S11310500E946E094C018201F32DFF773F2E16C0CA
S1131060280122E0420E511CF801A080B18036FE16
S113107003C0692D70E002C06FEF7FEFC5010E94CD
S113108063094C01F32DF0683F2E820133FC1BC031
S1131090822D90E088169906B0F4B60180E290E0C3
S11310A00E9479092A94F4CFF50137FC859137FE23
S11310B081915F01B60190E00E94790921102A9480
S11310C021E0821A91088114910471F7E8C08436F2
S11310D011F0893641F5F80137FE07C0608171814E
S11310E0828193810C5F1F4F08C060817181072E3C
S11310F0000C880B990B0E5F1F4FF32DFF763F2ECC
S113110097FF09C090958095709561957F4F8F4F9B
S11311109F4FF0683F2E2AE030E0A3010E94B509FA
S1131120882E861845C0853731F4232D2F7EB22EA4
S11311302AE030E025C0932D997FB92E8F36C1F077
S113114018F4883579F0B5C0803719F0883721F064
S1131150B0C0E92FE061BE2EB4FE0DC0FB2DF460DB
S1131160BF2E09C034FE0AC0292F2660B22E06C045
S113117028E030E005C020E130E002C020E132E0A8
S1131180F801B7FE07C060817181828193810C5F91
S11311901F4F06C06081718180E090E00E5F1F4F99
S11311A0A3010E94B509882E8618FB2DFF773F2ED8
S11311B036FE0DC0232D2E7FA22E891458F434FE42
S11311C00BC032FC09C0832D8E7EA82E05C0B82C1E
S11311D0A32C03C0B82C01C0B92CA4FE0FC0FE017F
S11311E0E80DF11D8081803321F49A2D997EA92E7A
S11311F009C0A2FE06C0B394B39404C08A2D8678B5
S113120009F0B394A3FC11C0A0FE06C0B21488F484
S1131210280C922C9B180EC0B21460F4B60180E224
S113122090E00E947909B394F7CFB21418F42B1804
S113123002C0982C212CA4FE10C0B60180E390E0DB
S11312400E947909A2FE17C0A1FC03C088E790E0C0
S113125002C088E590E0B6010CC08A2D867859F06A
S1131260A1FE02C08BE201C080E2A7FC8DE2B601C0
S113127090E00E947909891438F4B60180E390E083
S11312800E9479099A94F7CF8A94F301E80DF11D2D
S11312908081B60190E00E9479098110F5CF222067
S11312A009F442CEB60180E290E00E9479092A94C2
S11312B0F6CFF6018681978102C08FEF9FEF2B96C0
S11312C0E2E10C94560AFC01059061507040011053
S11312D0D8F7809590958E0F9F1F0895FC0161505B
S11312E0704001900110D8F7809590958E0F9F1F44
S11312F008950F931F93CF93DF93FB01238121FD67
S113130003C08FEF9FEF2CC022FF16C04681578188
S1131310248135814217530744F4A081B1819D0192
S11313202F5F3F4F318320838C93268137812F5F3A
S11313303F4F3783268314C08B01EC01FB010084EB
S1131340F185E02D0995892BE1F6D80116968D914A
S11313509C911797019617969C938E931697CE019E
S1131360DF91CF911F910F910895FA01AA27283098
S113137051F1203181F1E8946F936E7F6E5F7F4F5E
S11313808F4F9F4FAF4FB1E03ED0B4E03CD0670FDA
S1131390781F891F9A1FA11D680F791F8A1F911D2D
S11313A0A11D6A0F711D811D911DA11D20D009F47D
S11313B068943F912AE0269F11243019305D3193BF
S11313C0DEF6CF010895462F4770405D4193B3E0A8
S11313D00FD0C9F7F6CF462F4F70405D4A3318F04F
S11313E0495D31FD4052419302D0A9F7EACFB4E000
S11313F0A6959795879577956795BA95C9F70097B8
S11314006105710508959B01AC010A2E0694579558
S1131410479537952795BA95C9F7620F731F841FAF
S1131420951FA01D0895DC01CB01FC01E199FECFBD
S113143006C0FFBBEEBBE09A31960DB20D9241504F
S11314405040B8F70895DC01CB0103C02D910E94F0
S11314502E0A41505040D0F70895262FE199FECF2F
S11314609FBB8EBB2DBB0FB6F894E29AE19A0FBED8
S1131470019608952F923F924F925F926F927F92BE
S11314808F929F92AF92BF92CF92DF92EF92FF9290
S11314900F931F93CF93DF93CDB7DEB7CA1BDB0B3C
S11314A00FB6F894DEBF0FBECDBF09942A883988E1
S11314B048885F846E847D848C849B84AA84B984E8
S11314C0C884DF80EE80FD800C811B81AA81B981F4
S11314D0CE0FD11D0FB6F894DEBF0FBECDBFED0108
S10914E00895F894FFCF0B
S11314E601020304FFFFFFFF4F50454E204D4F44BA
S11314F645004C4F434B4544204D4F444500456EF3
S11315067465722050617373776F72643A20002594
S113151664002A002F002D00526573657420506103
S11315267373776F72643A0057524F4E4720504197
S11315365353574F52442100436F727265637420AC
S113154650617373776F726400436F6465204368F8
S1131556616E676564002B0043757272656E742054
S113156650617373776F7264212100456E746572DE
S1131576204E657720434F44453A200057726F6EDC
S10F1586672050617373776F726400007B
S9030000FC
