:100000000C943A000C9438020C9457000C9457004E
:100010000C9457000C9457000C9457000C94570004
:100020000C9457000C9457000C9457000C945700F4
:100030000C9457000C9457000C9457000C945700E4
:100040000C9457000C9457000C9457000C945700D4
:100050000C945700C501CB01D101D701DD01E301AB
:10006000E901EF01F301F901FF0105020B021D0295
:100070002302270211241FBECFE5D8E0DEBFCDBF8B
:1000800010E0A0E6B0E0E8EEFAE002C005900D92C4
:10009000A43AB107D9F720E0A4EAB0E001C01D926C
:1000A000AF3AB207E1F70E94F4000C9472050C9489
:1000B000000095B39F70282F207F922B95BB95B39E
:1000C0009E7F95BB95B3926095BB32E03A95F1F770
:1000D00000C095B39D7F95BBEFE8F1E03197F1F754
:1000E00000C0000025B3F0E18F9FC0011124922FC2
:1000F0009F70892B85BB85B3826085BB32E03A95C2
:10010000F1F700C085B38D7F85BB8FE99FE0019734
:10011000F1F700C00000089595B39F70282F207F4D
:10012000922B95BB95B3916095BB95B3926095BBAF
:1001300032E03A95F1F700C095B39D7F95BBEFE8AB
:10014000F1E03197F1F700C0000025B3F0E18F9F97
:10015000C0011124922F9F70892B85BB85B38260CB
:1001600085BB32E03A95F1F700C085B38D7F85BB42
:100170008FE99FE00197F1F700C0000008958FEF2D
:1001800084BB8FE39CE90197F1F700C0000082E097
:100190000E94590088E20E9459008CE00E94590098
:1001A00086E00E94590081E00E945900089581E094
:1001B0000E94590082E00E94590008950F931F93F6
:1001C000CF93DF938C01C0E0D0E003C00E948C008D
:1001D0002196F801EC0FFD1F80818111F7CFDF918F
:1001E000CF911F910F9108950E94BF0088E690E083
:1001F0000E94DE0080EC0E94590080E48BBF83E007
:1002000085BF7894FFCFCF93DF93C0E0D0E030C0BC
:10021000CE01880F991FFC01E955FF4F20813181E4
:10022000FC01E05AFF4F8081918128173907F9F0CE
:1002300081E00E94590089E790E00E94DE002FEFE4
:1002400089E698E1215080409040E1F700C000002D
:1002500081E00E94590088E690E00E94DE0080EC78
:100260000E9459001092A5001092A40004C021968B
:10027000C430D1056CF22397F1F481E00E9459005B
:1002800088E890E00E94DE002FEF89E698E1215097
:1002900080409040E1F700C0000081E00E945900DA
:1002A00088E690E00E94DE0080EC0E9459001092E7
:1002B000A5001092A400DF91CF9108950F931F9392
:1002C000CF93DF93CDB7DEB72A970FB6F894DEBF92
:1002D0000FBECDBF00E010E02BC0892B41F4FE0122
:1002E00031968AE0DF011D928A95E9F71FC0FE0171
:1002F0003196DF010D900020E9F7F801EE0FFF1FA6
:10030000E955FF4F21812F9320812F9329E930E078
:100310003F932F93CD0101979F938F930E94880263
:100320000F900F900F900F900F900F900F5F1F4F37
:100330008091A4009091A5000817190774F20E94FB
:10034000D70088E690E00E94DE0080EC0E94590011
:10035000CE0101960E94DE002A960FB6F894DEBF09
:100360000FBECDBFDF91CF911F910F910895829B5A
:10037000FECFE6B38E2F90E08031910508F06DC07E
:10038000FC01E65DFF4F0C9482028CE990E00E9434
:10039000DE0087E063C08CE990E00E94DE0088E028
:1003A0005DC08CE990E00E94DE0089E057C08EE9D4
:1003B00090E00E94DE008FEF51C08CE990E00E9437
:1003C000DE0084E04BC08CE990E00E94DE0085E016
:1003D00045C08CE990E00E94DE0086E03FC00E94AC
:1003E0005E018FEF3BC08CE990E00E94DE0081E06F
:1003F00035C08CE990E00E94DE0082E02FC08CE9DD
:1004000090E00E94DE0083E029C080EA90E00E9434
:10041000DE008FEF23C00E94D70088E690E00E94A4
:10042000DE0080EC0E94590088E0E7EAF0E0DF019E
:100430001D928A95E9F78FEF11C08CE990E00E9438
:10044000DE0080E00BC00E9403018FEF07C082EA4C
:1004500090E00E94DE008FEF01C08FEFBFE728E33E
:1004600031E0B15020403040E1F700C00000089575
:100470001F920F920FB60F9211242F933F934F9319
:100480005F936F937F938F939F93AF93BF93EF93FC
:10049000FF930E94B7018093A6008091A6008F3F32
:1004A00001F18091A4009091A5002091A600FC018B
:1004B000EE0FFF1FE955FF4F30E031832083019697
:1004C0009093A5008093A400049759F41092A5007E
:1004D0001092A40088E0E7EAF0E0DF011D928A951F
:1004E000E9F7FF91EF91BF91AF919F918F917F912C
:1004F0006F915F914F913F912F910F900FBE0F9091
:100500001F901895EE0FFF1F0590F491E02D0994B0
:10051000AEE0B0E0EEE8F2E00C9449050D891E89EA
:1005200086E08C831A8309838FEF9FE79E838D83F8
:10053000AE01475E5F4F6F89788DCE0101960E94B4
:10054000AA02EF81F885E00FF11F10822E96E4E0F9
:100550000C946505ABE0B0E0E0EBF2E00C943B05F9
:100560006C017B018A01FC0117821682838181FF65
:10057000CCC1CE0101963C01F6019381F70193FDB8
:10058000859193FF81917F01882309F4BAC1853257
:1005900039F493FD859193FF81917F01853229F490
:1005A000B60190E00E94A104E7CF912C212C312CC0
:1005B000FFE1F315D8F08B3279F038F4803279F01E
:1005C0008332A1F4232D20611DC08D3261F0803370
:1005D00069F4232D216016C0832D8260382EE32D0F
:1005E000E4603E2E2AC0F32DF8601DC037FC2DC0FC
:1005F00020ED280F2A3040F08E32B9F436FC81C14C
:10060000232D2064322E19C036FE06C08AE0989E43
:10061000200D1124922E11C0EAE02E9E200D1124EF
:10062000222EF32DF0623F2E08C08C3621F4832D4C
:100630008068382E02C0883641F4F70193FD859119
:1006400093FF81917F018111B3CF982F9F7D9554A6
:10065000933028F40C5F1F4F9FE399830DC08336BE
:1006600031F0833771F0833509F059C021C0F801AA
:10067000808189830E5F1F4F88248394912C5301BE
:1006800013C02801F2E04F0E511CF801A080B18088
:1006900036FE03C0692D70E002C06FEF7FEFC50129
:1006A0000E9496044C018201F32DFF773F2E16C065
:1006B000280122E0420E511CF801A080B18036FED4
:1006C00003C0692D70E002C06FEF7FEFC5010E948B
:1006D0008B044C01F32DF0683F2E820133FC1BC0CC
:1006E000822D90E088169906B0F4B60180E290E081
:1006F0000E94A1042A94F4CFF50137FC859137FEBE
:1007000081915F01B60190E00E94A10421102A941A
:1007100021E0821A91088114910471F7E8C08436AF
:1007200011F0893641F5F80137FE07C0608171810B
:10073000828193810C5F1F4F08C060817181072EF9
:10074000000C880B990B0E5F1F4FF32DFF763F2E89
:1007500097FF09C090958095709561957F4F8F4F59
:100760009F4FF0683F2E2AE030E0A3010E94DD0495
:10077000882E861845C0853731F4232D2F7EB22E62
:100780002AE030E025C0932D997FB92E8F36C1F035
:1007900018F4883579F0B5C0803719F0883721F022
:1007A000B0C0E92FE061BE2EB4FE0DC0FB2DF46099
:1007B000BF2E09C034FE0AC0292F2660B22E06C003
:1007C00028E030E005C020E130E002C020E132E066
:1007D000F801B7FE07C060817181828193810C5F4F
:1007E0001F4F06C06081718180E090E00E5F1F4F57
:1007F000A3010E94DD04882E8618FB2DFF773F2E73
:1008000036FE0DC0232D2E7FA22E891458F434FEFF
:100810000BC032FC09C0832D8E7EA82E05C0B82CDB
:10082000A32C03C0B82C01C0B92CA4FE0FC0FE013C
:10083000E80DF11D8081803321F49A2D997EA92E37
:1008400009C0A2FE06C0B394B39404C08A2D867872
:1008500009F0B394A3FC11C0A0FE06C0B21488F442
:10086000280C922C9B180EC0B21460F4B60180E2E2
:1008700090E00E94A104B394F7CFB21418F42B189F
:1008800002C0982C212CA4FE10C0B60180E390E099
:100890000E94A104A2FE17C0A1FC03C088E790E05B
:1008A00002C088E590E0B6010CC08A2D867859F028
:1008B000A1FE02C08BE201C080E2A7FC8DE2B6017E
:1008C00090E00E94A104891438F4B60180E390E01E
:1008D0000E94A1049A94F7CF8A94F301E80DF11DC8
:1008E0008081B60190E00E94A1048110F5CF222002
:1008F00009F442CEB60180E290E00E94A1042A945D
:10090000F6CFF6018681978102C08FEF9FEF2B967D
:10091000E2E10C945705FC01059061507040011014
:10092000D8F7809590958E0F9F1F0895FC01615018
:10093000704001900110D8F7809590958E0F9F1F01
:1009400008950F931F93CF93DF93FB01238121FD24
:1009500003C08FEF9FEF2CC022FF16C04681578146
:10096000248135814217530744F4A081B1819D0150
:100970002F5F3F4F318320838C93268137812F5FF8
:100980003F4F3783268314C08B01EC01FB010084A9
:10099000F185E02D0995892BE1F6D80116968D9108
:1009A0009C911797019617969C938E931697CE015C
:1009B000DF91CF911F910F910895FA01AA27283056
:1009C00051F1203181F1E8946F936E7F6E5F7F4F1C
:1009D0008F4F9F4FAF4FB1E03ED0B4E03CD0670F98
:1009E000781F891F9A1FA11D680F791F8A1F911DEB
:1009F000A11D6A0F711D811D911DA11D20D009F43B
:100A000068943F912AE0269F11243019305D31937C
:100A1000DEF6CF010895462F4770405D4193B3E065
:100A20000FD0C9F7F6CF462F4F70405D4A3318F00C
:100A3000495D31FD4052419302D0A9F7EACFB4E0BD
:100A4000A6959795879577956795BA95C9F7009775
:100A50006105710508959B01AC010A2E0694579516
:100A6000479537952795BA95C9F7620F731F841F6D
:100A7000951FA01D08952F923F924F925F926F9203
:100A80007F928F929F92AF92BF92CF92DF92EF921E
:100A9000FF920F931F93CF93DF93CDB7DEB7CA1B9F
:100AA000DB0B0FB6F894DEBF0FBECDBF09942A88CA
:100AB000398848885F846E847D848C849B84AA8472
:100AC000B984C884DF80EE80FD800C811B81AA81FF
:100AD000B981CE0FD11D0FB6F894DEBF0FBECDBFCA
:080AE000ED010895F894FFCF29
:100AE8000100020003000400456E74657220506125
:100AF8007373776F72643A200057726F6E67205075
:100B0800617373776F726400436F727265637420E8
:100B180050617373776F7264002564002A002F0098
:040B28002D002B0071
:00000001FF
