:100000000C943A000C945A020C9457000C9457002C
:100010000C9457000C9457000C9457000C94570004
:100020000C9457000C9457000C9457000C945700F4
:100030000C9457000C9457000C9457000C945700E4
:100040000C9457000C9457000C9457000C945700D4
:100050000C945700E701ED01F301F901FF010502DE
:100060000B02110215021B02210227022D023F0280
:100070004502490211241FBECFE5D8E0DEBFCDBF47
:1000800010E0A0E6B0E0EEE4FBE002C005900D92C7
:10009000A43DB107D9F720E0A4EDB0E001C01D9266
:1000A000A93DB207E1F70E94F4000C94A5050C9459
:1000B000000095B39F70282F207F922B95BB95B39E
:1000C0009E7F95BB95B3926095BB32E03A95F1F770
:1000D00000C095B39D7F95BBEFE8F1E03197F1F754
:1000E00000C0000025B3F0E18F9FC0011124922FC2
:1000F0009F70892B85BB85B3826085BB32E03A95C2
:10010000F1F700C085B38D7F85BB8FE99FE0019734
:10011000F1F700C00000089595B39F70282F207F4D
:10012000922B95BB95B3916095BB95B3926095BBAF
:1001300032E03A95F1F700C095B39D7F95BBEFE8AB
:10014000F1E03197F1F700C0000025B3F0E18F9F97
:10015000C0011124922F9F70892B85BB85B38260CB
:1001600085BB32E03A95F1F700C085B38D7F85BB42
:100170008FE99FE00197F1F700C0000008958FEF2D
:1001800084BB8FE39CE90197F1F700C0000082E097
:100190000E94590088E20E9459008CE00E94590098
:1001A00086E00E94590081E00E945900089581E094
:1001B0000E94590082E00E94590008950F931F93F6
:1001C000CF93DF938C01C0E0D0E003C00E948C008D
:1001D0002196F801EC0FFD1F80818111F7CFDF918F
:1001E000CF911F910F9108950E94BF0088E990E080
:1001F0000E94DE0080EC0E94590080E48BBF83E007
:1002000085BF7894FFCFCF93DF93C0E0D0E030C0BC
:10021000CE01880F991FFC01E859FF4F20813181E1
:10022000FC01E05AFF4F8081918128173907F9F0CE
:1002300081E00E94590089EA90E00E94DE002FEFE1
:1002400089E698E1215080409040E1F700C000002D
:1002500081E00E94590088E990E00E94DE0080EC75
:100260000E9459001092D7001092D60004C0219627
:10027000C430D1056CF22497F1F481E00E9459005A
:1002800088EB90E00E94DE002FEF89E698E1215094
:1002900080409040E1F700C0000081E00E945900DA
:1002A00088E990E00E94DE0080EC0E9459001092E4
:1002B000D7001092D600DF91CF910895EF92FF9270
:1002C0000F931F93CF93DF93CDB7DEB7E2970FB6AF
:1002D000F894DEBF0FBECDBF809170009091710089
:1002E0009A838983FE01339686E2DF011D928A9507
:1002F000E9F70E94D70088E990E00E94DE0080ECD8
:100300000E94590000E010E026C0F801EE0FFF1F28
:10031000E859FF4F808191818F3FBFEF9B07C9F064
:100320009F938F9389EC90E09F938F937E01E9E2F6
:10033000EE0EF11CFF92EF920E94BB02B701CE01BC
:1003400001960E94B0020F900F900F900F900F90A7
:100350000F900F5F1F4F04301105BCF28E010F5F2D
:100360001F4FC8010E94DE0048E050E06FEF7FEFB2
:1003700088E690E00E94A902FE01B9968AE0DF01BA
:100380001D928A95E9F788E2F80111928A95E9F7BA
:100390001092D5001092D400E2960FB6F894DEBF0A
:1003A0000FBECDBFDF91CF911F910F91FF90EF90C6
:1003B0000895829BFECFE6B38E2F90E080319105A9
:1003C00008F06DC0FC01E65DFF4F0C94A3028CECBD
:1003D00090E00E94DE0087E063C08CEC90E00E9419
:1003E000DE0088E05DC08CEC90E00E94DE0089E0D9
:1003F00057C08EEC90E00E94DE008FEF51C08CEC75
:1004000090E00E94DE0084E04BC08CEC90E00E9403
:10041000DE0085E045C08CEC90E00E94DE0086E0C6
:100420003FC00E945E018FEF3BC08CEC90E00E94C9
:10043000DE0081E035C08CEC90E00E94DE0082E0BE
:100440002FC08CEC90E00E94DE0083E029C080ED9C
:1004500090E00E94DE008FEF23C00E94D70088E961
:1004600090E00E94DE0080EC0E94590088E0E8E6FF
:10047000F0E0DF011D928A95E9F78FEF11C08CEC57
:1004800090E00E94DE0080E00BC00E9403018FEF2D
:1004900007C082ED90E00E94DE008FEF01C08FEF79
:1004A000BFE728E331E0B15020403040E1F700C021
:1004B000000008951F920F920FB60F9211242F93F0
:1004C0003F934F935F936F937F938F939F93AF93DC
:1004D000BF93EF93FF930E94D9018093D80080913E
:1004E000D8008F3FF9F08091D6009091D7002091ED
:1004F000D800FC01EE0FFF1FE859FF4F30E03183B9
:10050000208301969093D7008093D600049751F4EE
:100510001092D7001092D60081E090E09093D50021
:100520008093D400FF91EF91BF91AF919F918F91F4
:100530007F916F915F914F913F912F910F900FBEDF
:100540000F901F901895EE0FFF1F0590F491E02D6E
:100550000994DC0101C06D9341505040E0F70895CB
:10056000FB01DC010D900020E9F7119701900D923D
:100570000020E1F70895AEE0B0E0E1ECF2E00C9489
:100580007C050D891E8986E08C831A8309838FEF91
:100590009FE79E838D83AE01475E5F4F6F89788DA5
:1005A000CE0101960E94DD02EF81F885E00FF11F78
:1005B00010822E96E4E00C949805ABE0B0E0E3EEF8
:1005C000F2E00C946E056C017B018A01FC0117823C
:1005D0001682838181FFCCC1CE0101963C01F601D8
:1005E0009381F70193FD859193FF81917F0188238A
:1005F00009F4BAC1853239F493FD859193FF819155
:100600007F01853229F4B60190E00E94D404E7CF3F
:10061000912C212C312CFFE1F315D8F08B3279F09D
:1006200038F4803279F08332A1F4232D20611DC08B
:100630008D3261F0803369F4232D216016C0832D43
:100640008260382EE32DE4603E2E2AC0F32DF86040
:100650001DC037FC2DC020ED280F2A3040F08E320F
:10066000B9F436FC81C1232D2064322E19C036FE28
:1006700006C08AE0989E200D1124922E11C0EAE057
:100680002E9E200D1124222EF32DF0623F2E08C045
:100690008C3621F4832D8068382E02C0883641F4D0
:1006A000F70193FD859193FF81917F018111B3CF74
:1006B000982F9F7D9554933028F40C5F1F4F9FE334
:1006C00099830DC0833631F0833771F0833509F09B
:1006D00059C021C0F801808189830E5F1F4F882493
:1006E0008394912C530113C02801F2E04F0E511C4A
:1006F000F801A080B18036FE03C0692D70E002C011
:100700006FEF7FEFC5010E94C9044C018201F32DF8
:10071000FF773F2E16C0280122E0420E511CF8013F
:10072000A080B18036FE03C0692D70E002C06FEF7B
:100730007FEFC5010E94BE044C01F32DF0683F2EEF
:10074000820133FC1BC0822D90E088169906B0F41C
:10075000B60180E290E00E94D4042A94F4CFF5011F
:1007600037FC859137FE81915F01B60190E00E94D0
:10077000D40421102A9421E0821A91088114910452
:1007800071F7E8C0843611F0893641F5F80137FE7B
:1007900007C060817181828193810C5F1F4F08C007
:1007A00060817181072E000C880B990B0E5F1F4F23
:1007B000F32DFF763F2E97FF09C090958095709599
:1007C00061957F4F8F4F9F4FF0683F2E2AE030E0BA
:1007D000A3010E941005882E861845C0853731F484
:1007E000232D2F7EB22E2AE030E025C0932D997F55
:1007F000B92E8F36C1F018F4883579F0B5C080373E
:1008000019F0883721F0B0C0E92FE061BE2EB4FEA8
:100810000DC0FB2DF460BF2E09C034FE0AC0292F85
:100820002660B22E06C028E030E005C020E130E0AE
:1008300002C020E132E0F801B7FE07C0608171819B
:10084000828193810C5F1F4F06C06081718180E0BF
:1008500090E00E5F1F4FA3010E941005882E86189E
:10086000FB2DFF773F2E36FE0DC0232D2E7FA22EAF
:10087000891458F434FE0BC032FC09C0832D8E7EDF
:10088000A82E05C0B82CA32C03C0B82C01C0B92CCD
:10089000A4FE0FC0FE01E80DF11D8081803321F41C
:1008A0009A2D997EA92E09C0A2FE06C0B394B394D6
:1008B00004C08A2D867809F0B394A3FC11C0A0FE71
:1008C00006C0B21488F4280C922C9B180EC0B214E7
:1008D00060F4B60180E290E00E94D404B394F7CFB4
:1008E000B21418F42B1802C0982C212CA4FE10C0AE
:1008F000B60180E390E00E94D404A2FE17C0A1FCE0
:1009000003C088E790E002C088E590E0B6010CC023
:100910008A2D867859F0A1FE02C08BE201C080E2E8
:10092000A7FC8DE2B60190E00E94D404891438F44B
:10093000B60180E390E00E94D4049A94F7CF8A94A1
:10094000F301E80DF11D8081B60190E00E94D4040E
:100950008110F5CF222009F442CEB60180E290E06A
:100960000E94D4042A94F6CFF6018681978102C0B2
:100970008FEF9FEF2B96E2E10C948A05FC01059026
:10098000615070400110D8F7809590958E0F9F1F91
:100990000895FC016150704001900110D8F78095D6
:1009A00090958E0F9F1F08950F931F93CF93DF9302
:1009B000FB01238121FD03C08FEF9FEF2CC022FF9D
:1009C00016C046815781248135814217530744F46C
:1009D000A081B1819D012F5F3F4F318320838C9394
:1009E000268137812F5F3F4F3783268314C08B01C9
:1009F000EC01FB010084F185E02D0995892BE1F6DE
:100A0000D80116968D919C911797019617969C93F5
:100A10008E931697CE01DF91CF911F910F9108957C
:100A2000FA01AA27283051F1203181F1E8946F931F
:100A30006E7F6E5F7F4F8F4F9F4FAF4FB1E03ED0C5
:100A4000B4E03CD0670F781F891F9A1FA11D680F63
:100A5000791F8A1F911DA11D6A0F711D811D911D96
:100A6000A11D20D009F468943F912AE0269F11240B
:100A70003019305D3193DEF6CF010895462F47706F
:100A8000405D4193B3E00FD0C9F7F6CF462F4F70CA
:100A9000405D4A3318F0495D31FD4052419302D028
:100AA000A9F7EACFB4E0A6959795879577956795CE
:100AB000BA95C9F700976105710508959B01AC01CE
:100AC0000A2E06945795479537952795BA95C9F7F5
:100AD000620F731F841F951FA01D08952F923F92D0
:100AE0004F925F926F927F928F929F92AF92BF923E
:100AF000CF92DF92EF92FF920F931F93CF93DF93EA
:100B0000CDB7DEB7CA1BDB0B0FB6F894DEBF0FBE46
:100B1000CDBF09942A88398848885F846E847D8493
:100B20008C849B84AA84B984C884DF80EE80FD8095
:100B30000C811B81AA81B981CE0FD11D0FB6F8940B
:0E0B4000DEBF0FBECDBFED010895F894FFCFCC
:100B4E000100020003000400FFFFFFFFFFFFFFFF95
:100B5E000000000000000000000000000000000087
:100B6E000000000000000000000000000000000077
:100B7E000000000000000000456E74657220506198
:100B8E007373776F72643A200057726F6E672050DE
:100B9E00617373776F726400436F72726563742052
:100BAE0050617373776F7264002564002A002F0002
:040BBE002D002B00DB
:00000001FF
