:100000000C9449000C94E1010C94EB010C946600F3
:100010000C9466000C9466000C9466000C946600C8
:100020000C9466000C9466000C9466000C946600B8
:100030000C9466000C9466000C9466000C946600A8
:100040000C9466000C9466000C9466000C94660098
:100050000C946600BE02C402CA02D002D602DC02C0
:10006000E202E802EC02F202F802FE0204031A03C2
:100070002003240305A84CCDB2D44EB93836A902CA
:100080000C50B9918688083CA6AAAA2ABE00000096
:10009000803F11241FBECFE5D8E0DEBFCDBF10E00A
:1000A000A0E6B0E0E8E2F2E102C005900D92A23BCA
:1000B000B107D9F720E0A2EBB0E001C01D92A83B48
:1000C000B207E1F70E9435030C9412090C9400006A
:1000D00095B39F70282F207F922B95BB95B39E7F61
:1000E00095BB95B3926095BB32E03A95F1F700C0AD
:1000F00095B39D7F95BBEFE8F1E03197F1F700C034
:10010000000025B3F0E18F9FC0011124922F9F7052
:10011000892B85BB85B3826085BB32E03A95F1F7C8
:1001200000C085B38D7F85BB8FE99FE00197F1F714
:1001300000C00000089595B39F70282F207F922B58
:1001400095BB95B3916095BB95B3926095BB32E03A
:100150003A95F1F700C095B39D7F95BBEFE8F1E0CC
:100160003197F1F700C0000025B3F0E18F9FC00187
:100170001124922F9F70892B85BB85B3826085BB2C
:1001800032E03A95F1F700C085B38D7F85BB8FE9EA
:100190009FE00197F1F700C0000008958FEF84BB46
:1001A0008FE39CE90197F1F700C0000082E00E9414
:1001B000680088E20E9468008CE00E94680086E087
:1001C0000E94680081E00E946800089581E00E941A
:1001D000680082E00E94680008950F931F93CF93F8
:1001E000DF938C01C0E0D0E003C00E949B00219609
:1001F000F801EC0FFD1F80818111F7CFDF91CF91C6
:100200001F910F910895CF93DF9381309105A1F550
:100210002DC082B38F7B82BB82B3806282BB2FEF03
:1002200049E688E1215040408040E1F700C00000ED
:1002300082B38F7D82BB9FEF29E648E19150204039
:100240004040E1F700C000008091B200813061F4CD
:100250000E94E60080E790E00E94ED0080E090E0E0
:100260000E9403011092B200219602C0C0E0D0E0CB
:10027000C530D10574F233C0009721F482B3806297
:1002800082BB2DC08230910521F482B3806482BB91
:1002900026C0039721F51EC082B38F7D82BB82B337
:1002A000806482BB8FEF99E648E1815090404040E6
:1002B000E1F700C0000082B38F7B82BB8FEF99E62D
:1002C00048E1815090404040E1F700C000002F5FBE
:1002D0003F4F02C020E030E025303105ECF2DF91E5
:1002E000CF910895EF92FF920F931F93CF93DF93D7
:1002F000CDB7DEB7E2970FB6F894DEBF0FBECDBF25
:100300000E94E60085E790E00E94ED0080EC0E94EC
:1003100068008091B3009091B400019709F044C047
:1003200027C0F801EE0FFF1FE859FF4F8081918130
:100330008F3F2FEF9207C9F09F938F9386E890E04D
:100340009F938F937E0189E2E80EF11CFF92EF925A
:100350000E942806B701CE0101960E941D060F904B
:100360000F900F900F900F900F900F5F1F4F02C0D4
:1003700000E010E004301105A4F28E010F5F1F4F62
:10038000C8010E94ED0048E050E06FEF7FEF88E683
:1003900090E00E94160688E2F80111928A95E9F72A
:1003A0001092B4001092B300E2960FB6F894DEBF3C
:1003B0000FBECDBFDF91CF911F910F91FF90EF90B6
:1003C00008951F920F920FB60F9211240F900FBE37
:1003D0000F901F9018951F920F920FB60F92112435
:1003E0002F938F939F932FE788E391E021508040D4
:1003F0009040E1F700C00000839B03C081E0809340
:10040000B2008AB780688ABF9F918F912F910F9019
:100410000FBE0F901F901895CF92DF92EF92FF9230
:100420000F931F93CF93DF9381B3806881BB83B712
:10043000896683BFC0E0D0E00CED15E042C080E8E3
:100440008CBF8FE19EE40197F1F700C000000E5CC5
:100450001F4FB801012E000C880B990B0E948704D6
:1004600023EC35EF48EC50E40E9413056B017C014E
:10047000BE010D2E000C880B990B0E948704A7016A
:1004800096010E94130520E030E04AE754E40E9400
:10049000E4030E94800520E030E04EEF52E40E9429
:1004A000130520E030E040E053E40E9478030E940E
:1004B00056046CBF8FE19EE40197F1F700C0000085
:1004C0002196C233D1050CF4BACF83B7867983BFA6
:1004D00082B38F7782BBDF91CF911F910F91FF90F5
:1004E000EF90DF90CF90089520E030E025C0C90163
:1004F000880F991FFC01E859FF4F40815181FC0191
:10050000E05AFF4F808191814817590799F00E9466
:10051000E60089E890E00E94ED001092B60010928B
:10052000B50083E090E00E9403010E940C028FEF6F
:100530009FEF08952F5F3F4F24303105C4F20E9492
:10054000E60088E990E00E94ED0081E090E00E94E2
:1005500003011092B6001092B50081E090E008957A
:10056000829BFECFE6B38E2F90E08031910508F09C
:1005700071C0FC01E65DFF4F0C94100689EA90E023
:100580000E94ED0087E067C089EA90E00E94ED00DC
:1005900088E061C089EA90E00E94ED0089E05BC0DC
:1005A0008BEA90E00E94ED008FEF55C089EA90E061
:1005B0000E94ED0084E04FC089EA90E00E94ED00C7
:1005C00085E049C089EA90E00E94ED0086E043C0E2
:1005D0000E9472018FEF3FC089EA90E00E94ED0017
:1005E00081E039C089EA90E00E94ED0082E033C0EA
:1005F00089EA90E00E94ED0083E02DC08DEA90E052
:100600000E94ED008FEF27C00E94E60085E790E092
:100610000E94ED0080EC0E94680088E0E8E6F0E0CF
:10062000DF011D928A95E9F782E090E00E940301C4
:100630008FEF11C089EA90E00E94ED0080E00BC0CE
:100640000E9474028FEF07C08FEA90E00E94ED00D5
:100650008FEF01C08FEFBFEF24E33CE0B1502040AB
:100660003040E1F700C00000089581B3806681BB8F
:1006700081B3806881BB0E94CE0085E790E00E9434
:10068000ED0080EC0E94680082E090E00E9403018F
:100690008BB7806C8BBF85B78D6085BF78940E94C7
:1006A000B0028093B7008091B7008F3FC1F3809173
:1006B000B5009091B6002091B700FC01EE0FFF1F2E
:1006C000E859FF4F30E03183208301969093B600C4
:1006D0008093B500049719F71092B6001092B500F8
:1006E00081E090E09093B4008093B300D8CF50584D
:1006F000BB27AA270E948F030C94D9040E94CB0425
:1007000038F00E94D20420F039F49F3F19F426F407
:100710000C94C8040EF4E095E7FB0C94C204E92F96
:100720000E94EA0458F3BA17620773078407950713
:1007300020F079F4A6F50C940C050EF4E0950B2E40
:10074000BA2FA02D0B01B90190010C01CA01A00123
:100750001124FF27591B99F0593F50F4503E68F17E
:100760001A16F040A22F232F342F4427585FF3CFBF
:10077000469537952795A795F0405395C9F77EF490
:100780001F16BA0B620B730B840BBAF09150A1F0D9
:10079000FF0FBB1F661F771F881FC2F70EC0BA0F5F
:1007A000621F731F841F48F4879577956795B795E7
:1007B000F7959E3F08F0B0CF9395880F08F09927E2
:1007C000EE0F9795879508950E94F8030C94D9042D
:1007D0000E94D20458F00E94CB0440F029F45F3FFD
:1007E00029F00C94C20451110C940D050C94C8040A
:1007F0000E94EA0468F39923B1F3552391F3951B02
:10080000550BBB27AA2762177307840738F09F5F31
:100810005F4F220F331F441FAA1FA9F335D00E2E9E
:100820003AF0E0E832D091505040E695001CCAF70B
:100830002BD0FE2F29D0660F771F881FBB1F2617CE
:1008400037074807AB07B0E809F0BB0B802DBF01A5
:10085000FF2793585F4F3AF09E3F510578F00C9474
:10086000C2040C940D055F3FE4F3983ED4F38695E3
:1008700077956795B795F7959F5FC9F7880F911D95
:100880009695879597F90895E1E0660F771F881F81
:10089000BB1F621773078407BA0720F0621B730B34
:1008A000840BBA0BEE1F88F7E09508950E94F204BE
:1008B00088F09F5798F0B92F9927B751B0F0E1F021
:1008C000660F771F881F991F1AF0BA95C9F714C0D1
:1008D000B13091F00E940C05B1E008950C940C0524
:1008E000672F782F8827B85F39F0B93FCCF386950A
:1008F00077956795B395D9F73EF490958095709567
:1009000061957F4F8F4F9F4F0895E89409C097FBE3
:100910003EF490958095709561957F4F8F4F9F4FD6
:100920009923A9F0F92F96E9BB279395F69587951A
:1009300077956795B795F111F8CFFAF4BB0F11F4DD
:1009400060FF1BC06F5F7F4F8F4F9F4F16C0882384
:1009500011F096E911C0772321F09EE8872F762FBA
:1009600005C0662371F096E8862F70E060E02AF0FB
:100970009A95660F771F881FDAF7880F96958795E7
:1009800097F9089597F99F6780E870E060E008950F
:100990009FEF80EC089500240A9416161706180697
:1009A0000906089500240A94121613061406050673
:1009B0000895092E0394000C11F4882352F0BB0F04
:1009C00040F4BF2B11F460FF04C06F5F7F4F8F4F67
:1009D0009F4F089557FD9058440F551F59F05F3FA2
:1009E00071F04795880F97FB991F61F09F3F79F051
:1009F00087950895121613061406551FF2CF4695D3
:100A0000F1DF08C0161617061806991FF1CF869554
:100A10007105610508940895E894BB276627772738
:100A2000CB0197F908950E9426050C94D9040E94E1
:100A3000CB0438F00E94D20420F0952311F00C94DE
:100A4000C2040C94C80411240C940D050E94EA04FD
:100A500070F3959FC1F3950F50E0551F629FF00111
:100A6000729FBB27F00DB11D639FAA27F00DB11D2A
:100A7000AA1F649F6627B00DA11D661F829F2227B3
:100A8000B00DA11D621F739FB00DA11D621F839F3A
:100A9000A00D611D221F749F3327A00D611D231F10
:100AA000849F600D211D822F762F6A2F11249F575E
:100AB00050409AF0F1F088234AF0EE0FFF1FBB1F61
:100AC000661F771F881F91505040A9F79E3F510520
:100AD00080F00C94C2040C940D055F3FE4F3983E43
:100AE000D4F3869577956795B795F795E7959F5FCA
:100AF000C1F7FE2B880F911D9695879597F908955C
:100B00009F930E948A050F9007FCEE5F0C94B3053B
:100B10000C94C8040E94F204D8F3E894E0E0BB27E8
:100B20009F57F0F02AED3FE049EC06C0EE0FBB0FF7
:100B3000661F771F881F28F0B23A62077307840781
:100B400028F0B25A620B730B840BE3959A9572F7F7
:100B5000803830F49A95BB0F661F771F881FD2F735
:100B600090480C94C905EF93E0FF07C0A2EA2AED74
:100B70003FE049EC5FEB0E948F030E94D9040F9085
:100B8000039401FC9058E4E7F0E00C94D5059F3FF6
:100B900031F0915020F4879577956795B795880F38
:100BA000911D9695879597F908959F938F937F93BD
:100BB0006F93FF93EF939B01AC010E941305EF919C
:100BC000FF910E94E9052F913F914F915F910C9405
:100BD0001305DF93CF931F930F93FF92EF92DF9252
:100BE0007B018C01689406C0DA2EEF010E94260575
:100BF000FE01E894A5912591359145915591A6F373
:100C0000EF010E948F03FE019701A801DA9469F7B2
:100C1000DF90EF90FF900F911F91CF91DF9108959A
:100C2000EE0FFF1F0590F491E02D0994DC0101C047
:100C30006D9341505040E0F70895FB01DC010D90A9
:100C40000020E9F7119701900D920020E1F7089537
:100C5000AEE0B0E0EEE2F6E00C94E9080D891E8902
:100C600086E08C831A8309838FEF9FE79E838D83B1
:100C7000AE01475E5F4F6F89788DCE0101960E946D
:100C80004A06EF81F885E00FF11F10822E96E4E00E
:100C90000C940509ABE0B0E0E0E5F6E00C94DB086D
:100CA0006C017B018A01FC0117821682838181FF1E
:100CB000CCC1CE0101963C01F6019381F70193FD71
:100CC000859193FF81917F01882309F4BAC1853210
:100CD00039F493FD859193FF81917F01853229F449
:100CE000B60190E00E944108E7CF912C212C312CD5
:100CF000FFE1F315D8F08B3279F038F4803279F0D7
:100D00008332A1F4232D20611DC08D3261F0803328
:100D100069F4232D216016C0832D8260382EE32DC7
:100D2000E4603E2E2AC0F32DF8601DC037FC2DC0B4
:100D300020ED280F2A3040F08E32B9F436FC81C104
:100D4000232D2064322E19C036FE06C08AE0989EFC
:100D5000200D1124922E11C0EAE02E9E200D1124A8
:100D6000222EF32DF0623F2E08C08C3621F4832D05
:100D70008068382E02C0883641F4F70193FD8591D2
:100D800093FF81917F018111B3CF982F9F7D95545F
:100D9000933028F40C5F1F4F9FE399830DC0833677
:100DA00031F0833771F0833509F059C021C0F80163
:100DB000808189830E5F1F4F88248394912C530177
:100DC00013C02801F2E04F0E511CF801A080B18041
:100DD00036FE03C0692D70E002C06FEF7FEFC501E2
:100DE0000E9436084C018201F32DFF773F2E16C07A
:100DF000280122E0420E511CF801A080B18036FE8D
:100E000003C0692D70E002C06FEF7FEFC5010E9443
:100E10002B084C01F32DF0683F2E820133FC1BC0E0
:100E2000822D90E088169906B0F4B60180E290E039
:100E30000E9441082A94F4CFF50137FC859137FED2
:100E400081915F01B60190E00E94410821102A942F
:100E500021E0821A91088114910471F7E8C0843668
:100E600011F0893641F5F80137FE07C060817181C4
:100E7000828193810C5F1F4F08C060817181072EB2
:100E8000000C880B990B0E5F1F4FF32DFF763F2E42
:100E900097FF09C090958095709561957F4F8F4F12
:100EA0009F4FF0683F2E2AE030E0A3010E947D08AA
:100EB000882E861845C0853731F4232D2F7EB22E1B
:100EC0002AE030E025C0932D997FB92E8F36C1F0EE
:100ED00018F4883579F0B5C0803719F0883721F0DB
:100EE000B0C0E92FE061BE2EB4FE0DC0FB2DF46052
:100EF000BF2E09C034FE0AC0292F2660B22E06C0BC
:100F000028E030E005C020E130E002C020E132E01E
:100F1000F801B7FE07C060817181828193810C5F07
:100F20001F4F06C06081718180E090E00E5F1F4F0F
:100F3000A3010E947D08882E8618FB2DFF773F2E87
:100F400036FE0DC0232D2E7FA22E891458F434FEB8
:100F50000BC032FC09C0832D8E7EA82E05C0B82C94
:100F6000A32C03C0B82C01C0B92CA4FE0FC0FE01F5
:100F7000E80DF11D8081803321F49A2D997EA92EF0
:100F800009C0A2FE06C0B394B39404C08A2D86782B
:100F900009F0B394A3FC11C0A0FE06C0B21488F4FB
:100FA000280C922C9B180EC0B21460F4B60180E29B
:100FB00090E00E944108B394F7CFB21418F42B18B4
:100FC00002C0982C212CA4FE10C0B60180E390E052
:100FD0000E944108A2FE17C0A1FC03C088E790E070
:100FE00002C088E590E0B6010CC08A2D867859F0E1
:100FF000A1FE02C08BE201C080E2A7FC8DE2B60137
:1010000090E00E944108891438F4B60180E390E032
:101010000E9441089A94F7CF8A94F301E80DF11DDC
:101020008081B60190E00E9441088110F5CF222016
:1010300009F442CEB60180E290E00E9441082A9471
:10104000F6CFF6018681978102C08FEF9FEF2B9636
:10105000E2E10C94F708FC0105906150704001102A
:10106000D8F7809590958E0F9F1F0895FC016150D1
:10107000704001900110D8F7809590958E0F9F1FBA
:1010800008950F931F93CF93DF93FB01238121FDDD
:1010900003C08FEF9FEF2CC022FF16C046815781FF
:1010A000248135814217530744F4A081B1819D0109
:1010B0002F5F3F4F318320838C93268137812F5FB1
:1010C0003F4F3783268314C08B01EC01FB01008462
:1010D000F185E02D0995892BE1F6D80116968D91C1
:1010E0009C911797019617969C938E931697CE0115
:1010F000DF91CF911F910F910895FA01AA2728300F
:1011000051F1203181F1E8946F936E7F6E5F7F4FD4
:101110008F4F9F4FAF4FB1E03ED0B4E03CD0670F50
:10112000781F891F9A1FA11D680F791F8A1F911DA3
:10113000A11D6A0F711D811D911DA11D20D009F4F3
:1011400068943F912AE0269F11243019305D319335
:10115000DEF6CF010895462F4770405D4193B3E01E
:101160000FD0C9F7F6CF462F4F70405D4A3318F0C5
:10117000495D31FD4052419302D0A9F7EACFB4E076
:10118000A6959795879577956795BA95C9F700972E
:101190006105710508959B01AC010A2E06945795CF
:1011A000479537952795BA95C9F7620F731F841F26
:1011B000951FA01D08952F923F924F925F926F92BC
:1011C0007F928F929F92AF92BF92CF92DF92EF92D7
:1011D000FF920F931F93CF93DF93CDB7DEB7CA1B58
:1011E000DB0B0FB6F894DEBF0FBECDBF09942A8883
:1011F000398848885F846E847D848C849B84AA842B
:10120000B984C884DF80EE80FD800C811B81AA81B7
:10121000B981CE0FD11D0FB6F894DEBF0FBECDBF82
:08122000ED010895F894FFCFE1
:101228000100020003000400FFFFFFFFFFFFFFFFB4
:101238004F50454E00456E74657220506173737748
:101248006F72643A200025640057726F6E672050F1
:10125800617373776F726400436F72726563742091
:1012680050617373776F7264002A002F002D002B72
:02127800000074
:00000001FF
