S01400004469676974616C5F536166652E7372656374
S11300000C9448000C94B1010C9465000C946500A8
S11300100C9465000C9465000C9465000C946500C8
S11300200C9465000C9465000C9465000C946500B8
S11300300C9465000C9465000C9465000C946500A8
S11300400C9465000C9465000C9465000C94650098
S11300500C9465000B010D010F011E011101130128
S113006015011E01170119011B011E011E011D01AD
S1130070630168016D01720177017C0181018601D0
S11300808B01900195019A019F01A201A701AC0186
S113009011241FBECFE5D8E0DEBFCDBF10E0A0E63F
S11300A0B0E0E4E8F4E002C005900D92A43AB10790
S11300B0D9F720E0A4EAB0E001C01D92AE3AB2073D
S11300C0E1F70E942D020C9440020C94000095B3B9
S11300D09F70282F207F922B95BBA898A99A32E075
S11300E03A95F1F700C0A998EFE8F1E03197F1F7FC
S11300F000C0000025B32F70F0E18F9FC0011124D0
S1130100822B85BBA99A32E03A95F1F700C0A998F1
S11301108FE99FE00197F1F700C00000089595B3BF
S11301209F70282F207F922B95BBA89AA99A32E022
S11301303A95F1F700C0A998EFE8F1E03197F1F7AB
S113014000C0000025B32F70F0E18F9FC00111247F
S1130150822B85BBA99A32E03A95F1F700C0A998A1
S11301608FE99FE00197F1F700C0000008958FEF39
S113017084BB8FE39CE90197F1F700C0000082E0A3
S11301800E94670088E20E9467008CE00E9467007A
S113019086E00E94670081E00E946700089581E084
S11301A00E94670082E00E9467000895CF93DF9366
S11301B0EC018881882331F021960E948F00899177
S11301C08111FBCFDF91CF9108951ABA87E886B9E0
S11301D080E487B9089597B18F70982B97B9369AB0
S11301E0349BFECF8AE18A95F1F700C024B185B132
S11301F090E0982F8827820F911D0895829BFECF4F
S1130200E6B34E2F50E04E305105C0F4FA01E65DDE
S1130210FF4F0C943A0287E0089588E0089589E03E
S1130220089584E0089585E0089586E0089581E0C6
S1130230089582E0089583E0089580E00895CF93BF
S1130240DF930E94CF0082E690E00E94D6002FEF59
S113025089E698E1215080409040E1F700C0000019
S11302600E94CF008DE690E00E94D60080EC0E94B0
S113027067008091600090916100181619068CF057
S113028013C00E94FE008823E1F390E00E94D60090
S113029021968091600090916100C817D9078CF372
S11302A003C0C0E0D0E0EDCFDF91CF910895E0919D
S11302B0AC00F091AD00E031F10508F051C0E85C0C
S11302C0FF4F0C943A028BE790E00E94D600089509
S11302D08DE790E00E94D60008958FE790E00E9499
S11302E0D600089581E890E00E94D600089583E83E
S11302F090E00E94D600089585E890E00E94D60020
S1130300089587E890E00E94D600089589E890E077
S11303100E94D60008958BE890E00E94D6000895CC
S11303208DE890E00E94D60008958FE890E00E9446
S1130330D600089581E990E00E94D60008950E94B5
S11303401F01089583E990E00E94D600089585E98D
S113035090E00E94D600089587E990E00E94D600BC
S113036008951F920F920FB60F9211242F933F936B
S11303704F935F936F937F938F939F93AF93BF93A9
S1130380EF93FF938091AA009091AB00813092404B
S11303908CF00E94CF00979A89E990E00E94D600E1
S11303A08FEF93ED20E3815090402040E1F700C0AF
S11303B00000F1CF97980E94CF0086B390E090930D
S11303C0AD008093AC000E9457018FEF90E722E0CC
S11303D0815090402040E1F700C00000FF91EF9170
S11303E0BF91AF919F918F917F916F915F914F9149
S11303F03F912F910F900FBE0F901F90189580E0A2
S11304000E94EB009093AB008093AA00813092404D
S11304109CF00E94CF00979A89E990E00E94D60050
S11304208FEF93ED20E3815090402040E1F700C02E
S113043000000E94CF00EFCF97988FE990E00E94D0
S1130440D6008FEF93ED20E3815090402040E1F7F8
S113045000C000000E94CF00089580E48BBF83E0B9
S113046085BF78940E94E5000E94B7008F9A0E948D
S1130470FF01FDCFEE0FFF1F0590F491E02D0994CD
S1070480F894FFCF1A
S113048404005245534554204D4F4445004F4C44B9
S11304942050415353434F44453A00370038003900
S11304A4002F003400350036002A003100320033B6
S11304B4002D0030003D002B0054484546540050A4
S10704C44F5254003B
S9030000FC
