S01400004449474954414C5F534146452E7372656394
S11300000C9449000C94FC050C94FF000C946600BD
S11300100C9466000C9466000C9466000C946600C4
S11300200C9466000C9466000C9466000C946600B4
S11300300C9466000C9466000C9466000C946600A4
S11300400C9466000C9466000C9466000C94660094
S11300500C946600180323032E039B033903440303
S11300604F035A03650370037B039B039B038603BF
S11300709103E104F8040F0526052E0545055C05EA
S1130080730583059A05B105C805D005D205E705B2
S1130090F70511241FBECFE5D8E0DEBFCDBF10E0C9
S11300A0A0E6B0E0EAEAFDE002C005900D92A83EA9
S11300B0B107D9F721E0A8EEB0E001C01D92A0324B
S11300C0B207E1F70E94EC010C94D3060C940000F3
S11300D095B39F70282F207F922B95BBA898A99A3F
S11300E032E03A95F1F700C0A998EFE8F1E03197D2
S11300F0F1F700C0000025B32F70F0E18F9FC0011D
S11301001124822B85BBA99A32E03A95F1F700C0FD
S1130110A9988FE99FE00197F1F700C000000895C6
S113012095B39F70282F207F922B95BBA89AA99AEC
S113013032E03A95F1F700C0A998EFE8F1E0319781
S1130140F1F700C0000025B32F70F0E18F9FC001CC
S11301501124822B85BBA99A32E03A95F1F700C0AD
S1130160A9988FE99FE00197F1F700C00000089576
S11301708FEF84BB8FE39CE90197F1F700C0000087
S113018082E00E94680088E20E9468008CE00E947D
S1130190680086E00E94680081E00E94680008957B
S11301A081E00E94680082E00E9468000895CF9375
S11301B0DF93EC018881882331F021960E9490001E
S11301C089918111FBCFDF91CF9108951ABA87E805
S11301D086B980E487B9089597B18F70982B97B941
S11301E0369A349BFECF8AE18A95F1F700C024B198
S11301F085B190E0982F8827820F911D08951F9252
S11302000F920FB60F9211242F933F934F935F9346
S11302106F937F938F939F93AF93BF93EF93FF93CA
S11302200E94D00080911C0190911D0181309105A4
S1130230A1F482E090E090931D0180931C01109240
S1130240ED001092EC0080916000909161000196A5
S113025090936100809360000DC0029759F410924E
S11302601D0110921C011092ED001092EC0082B35B
S11302708F7182BBFF91EF91BF91AF919F918F914D
S11302807F916F915F914F913F912F910F900FBE8E
S11302900F901F90189583309105E1F426E030E02B
S11302A0959A4FEF89E698E1415080409040E1F7FC
S11302B000C0000082B38F7182BB4FEF84E39CE0E7
S11302C0415080409040E1F700C0000021503109C6
S11302D039F70895019711F4959A0895969A089517
S11302E0E199FECF45E050E060E070E082EF90E0FD
S11302F00E94BC06089545E050E060E070E08EE0A6
S113030091E00E94AC06089580E00E94EC00909376
S1130310170180931601813092408CF00E94D00026
S113032080E882BB82E690E00E94D70080EC0E94C5
S1130330680088E690E00E94D700979AFECF08955F
S11303400E947B0181E090E090931D0180931C0149
S11303502091F2003091F30080910E0190910F01F1
S11303602817390791F52091F4003091F500809118
S11303701001909111012817390739F52091F600E1
S11303803091F700809112019091130128173907D9
S1130390E1F42091F8003091F900809114019091DA
S11303A015012817390789F483E090E00E944B0176
S11303B080911C0190911D01029769F010921D011A
S11303C010921C010E94EC01089510921D011092DC
S11303D01C010E94EC01089580EE81BB0E94B800CC
S11303E00E94E60080EC8BBF8FE085BF789410926A
S11303F01D0110921C010E947B010F2EF6E16F2E4D
S1130400F1E07F2EF02D6894EE24E1F8F12C02EF58
S113041010E00F2EFAEFCF2EF0E0DF2EF02D0F2E8E
S1130420FEE0AF2EB12CF02D8091EC009091ED0008
S1130430019751F50E94D00084EB90E00E94D70010
S1130440CEE0D1E04AE06EEF70E0899199910E948C
S113045077068EEF90E00E94D7002FEF80E792E0BE
S1130460215080409040E1F700C00000C615D70538
S113047049F7EFEFFDE329E4E150F0402040E1F7D4
S113048000C000000E94D0008091EC009091ED002B
S11304908436910561F4F092ED00E092EC008091D5
S11304A01C0190911D01892B09F43FC021C080914A
S11304B01C0190911D01892BD9F48091EC0090913D
S11304C0ED00019791F580E090E00E944B010E94BD
S11304D0D0008EE690E00E94D70080EC0E94680075
S11304E080EE90E00E94D7001092E9001092E8009C
S11304F080911C0190911D010297B9F48091EC0048
S11305009091ED00019789F40E94D00089E790E072
S11305100E94D70080EC0E94680080EE90E00E9468
S1130520D70081E090E00E944B018091EC00909113
S1130530ED0001969093ED008093EC000E948401FD
S11305408091E8009091E90004970CF46DCFF801D4
S1130550808591850F9709F049C080911C01909185
S11305601D01019709F060CF0E94D00080E80E942D
S1130570680084E890E00E94D70080EC0E94680044
S113058084EB90E00E94D7000F2EF2EF8F2EF0E064
S11305909F2EF02D4AE06EEF70E0F401819191916D
S11305A04F010E9477068EEF90E00E94D700FFEF84
S11305B020E782E0F15020408040E1F700C00000D5
S11305C08C149D0439F7F801B186A086FFEF23ED62
S11305D080E3F15020408040E1F700C000008091AA
S11305E0E8009091E90004970CF41ECFF80180858F
S11305F091850E9709F018CF80911C0190911D01EF
S1130600019709F011CF1092E9001092E8000E94BE
S1130610A0010ACF829BFECFE6B34E2F50E04F30AD
S1130620510508F088C0FA01E65DFF4F0C9471068D
S11306308091E8009091E90001969093E9008093FD
S1130640E80087E008958091E8009091E900019620
S11306509093E9008093E80088E008958091E80091
S11306609091E90001969093E9008093E80089E075
S113067008958091E8009091E90001969093E90033
S11306808093E80084E008958091E8009091E90067
S113069001969093E9008093E80085E008958091A5
S11306A0E8009091E90001969093E9008093E800B6
S11306B086E008958091E8009091E9000196909376
S11306C0E9008093E8008FE008958091E80090911C
S11306D0E90001969093E9008093E80081E0089591
S11306E08091E8009091E90001969093E90080934D
S11306F0E80082E008958091E8009091E900019675
S11307009093E9008093E80083E008958091E800E5
S11307109091E90001969093E9008093E80080E0CD
S113072008958091E8009091E90001969093E90082
S11307308093E8008EE0089580911C0190911D0142
S1130740029709F02CC184E090E090931D018093FE
S11307501C011092E9001092E8000E94D00081E987
S113076090E00E94D7002FEF83ED90E3215080406A
S11307709040E1F700C000000E94D0008CE990E0B6
S11307800E94D70080EC0E94680084EB90E00E94F5
S1130790D7008091FA009091FB000F9799F50E9481
S11307A0D00089EA90E00E94D70080EC0E946800A3
S11307B0C2EFD0E00AEF10E04AE06EEF70E08991FA
S11307C099910E9477068EEF90E00E94D7002FEF58
S11307D080E792E0215080409040E1F700C00000A3
S11307E0C017D10749F72FEF8DE399E421508040DA
S11307F09040E1F700C000008EE090E09093FB0091
S11308008093FA000E947B012091F2003091F30062
S113081080910E0190910F012817390709F0B3C098
S11308202091F4003091F500809110019091110114
S11308302817390709F0A7C02091F6003091F70076
S113084080911201909113012817390709F09BC078
S11308502091F8003091F9008091140190911501D4
S11308602817390709F08FC08091FA009091FB0096
S11308700E9709F088C01092E9001092E8000E94D7
S1130880D00086EB90E00E94D70080EC0E946800C4
S11308908091E8009091E900059724F586B390E0F3
S11308A090931F0180931E010E94D504C091E8001B
S11308B0D091E9000E940A03CC0FDD1FCE50DF4F18
S11308C090E0998388832FEF82E597E02150804060
S11308D09040E1F700C000008091E8009091E900A9
S11308E00597E4F28091FA009091FB000F97B9F517
S11308F00E94D00086EB90E00E94D70080EC0E941A
S1130900680084EB90E00E94D700C2EFD0E00AEFC9
S113091010E04AE06EEF70E0899199910E947706A9
S11309208EEF90E00E94D7002FEF80E792E02150F5
S113093080409040E1F700C00000C017D10749F79C
S11309402FEF83ED90E3215080409040E1F700C009
S113095000008EE090E09093FB008093FA001092E8
S1130960E9001092E8000E9470010E94D00082E029
S113097090E090931D0180931C011092ED00109261
S1130980EC000E94EC0182E090E090931D018093C2
S11309901C011092ED001092EC000E94EC011092E8
S11309A01D0110921C010E94EC01E0911E01F091C6
S11309B01F01E031F10508F01EC1E75CFF4F0C9404
S11309C0710684EC90E00E94D70084E10E946800E4
S11309D087E090E090931901809318018091EA00D8
S11309E09091EB0001969093EB008093EA000895B8
S11309F086EC90E00E94D70084E10E94680088E0C1
S1130A0090E090931901809318018091EA009091ED
S1130A10EB0001969093EB008093EA00089588EC34
S1130A2090E00E94D70089E090E0909319018093B0
S1130A30180184E10E9468008091EA009091EB0023
S1130A4001969093EB008093EA0008958AEC90E07D
S1130A500E94D70084E10E94680008958CEC90E025
S1130A600E94D70084E10E94680084E090E09093A3
S1130A701901809318018091EA009091EB0001968E
S1130A809093EB008093EA0008958EEC90E00E942E
S1130A90D70084E10E94680085E090E090931901FA
S1130AA0809318018091EA009091EB000196909355
S1130AB0EB008093EA00089580ED90E00E94D70057
S1130AC084E10E94680086E090E09093190180938D
S1130AD018018091EA009091EB0001969093EB004D
S1130AE08093EA0008958FE090E090931901809339
S1130AF018018091EA009091EB0001969093EB002D
S1130B008093EA00089582ED90E00E94D70084E18A
S1130B100E94680081E090E090931901809318018D
S1130B208091EA009091EB0001969093EB00809302
S1130B30EA00089584ED90E00E94D70084E10E94C9
S1130B40680082E090E090931901809318018091ED
S1130B50EA009091EB0001969093EB008093EA00F9
S1130B60089586ED90E00E94D70084E10E94680019
S1130B7083E090E090931901809318018091EA003A
S1130B809091EB0001969093EB008093EA00089516
S1130B9088ED90E00E94D70084E10E9468000895E7
S1130BA00E949C038AED90E00E94D70084E10E9499
S1130BB0680010921901109218018091EA00909136
S1130BC0EB0001969093EB008093EA0008958EE089
S1130BD090E090931901809318018091EA0090911C
S1130BE0EB0001969093EB008093EA0008958CED5E
S1130BF090E00E94D70008951F920F920FB60F92B3
S1130C0011242F933F934F935F936F937F938F930D
S1130C109F93AF93BF93EF93FF938091E8009091DC
S1130C20E900892BB1F480911C0190911D01049776
S1130C3011F10E94D0008EE690E00E94D70080EC73
S1130C400E9468008EED90E00E94D70080EC0E9424
S1130C50680080911C0190911D01892B31F481E081
S1130C6090E090931D0180931C018091E800909185
S1130C70E9000597E4F486B390E090931F01809314
S1130C801E010E94D5048091E8009091E900FC01C6
S1130C90EE0FFF1FEE50FF4F209118013091190104
S1130CA03183208301969093E9008093E8002FEF2D
S1130CB080E792E0215080409040E1F700C00000BE
S1130CC0FF91EF91BF91AF919F918F917F916F9120
S1130CD05F914F913F912F910F900FBE0F901F90F6
S1130CE01895EE0FFF1F0590F491E02D0994BB2792
S1130CF04A3031F4992322F4BDE2909581959F4FB7
S1130D000C948306BB27FB015527AA27880F991F3C
S1130D10AA1FA41710F0A41B83955051B9F7A05D26
S1130D20AA3308F0A95DA193009779F7B111B193A3
S1130D301192CB010C949C06DC01FC01672F71918C
S1130D407723E1F7329704C07C916D9370836291AD
S1130D50AE17BF07C8F30895DC01CB01FC01E1998C
S1130D60FECF06C0FFBBEEBBE09A31960DB20D92EA
S1130D7041505040B8F70895DC01CB0103C02D91D8
S1130D800E94C70641505040D0F70895262FE1999C
S1130D90FECF9FBB8EBB2DBB0FB6F894E29AE19AAF
S10D0DA00FBE01960895F894FFCFEA
S1130DAA0100544845465400414C45525400456E8E
S1130DBA74657220436F646500536166653A204F17
S1130DCA50454E00456E746572656420436F6465D0
S1130DDA005245534554204D4F4445004F4C44203E
S1130DEA50415353434F444500594F5520454E549F
S1130DFA455245443A004E45572050415353434FB8
S1130E0A44453A003700380039002F0034003500D1
S1130E1A36003100320033002D0030002B003A2016
S10B0E2A5F205F205F205F00E0
S9030000FC
