S01500007E4469676974616C5F736166652E73726563D5
S11300000C942A000C949E010C9447000C94470015
S11300100C9447000C9447000C9447000C94470040
S11300200C9447000C94C4020C9447000C944700B1
S11300300C9447000C9447000C9447000C94470020
S11300400C9447000C9447000C9447000C94470010
S11300500C94470011241FBECFE5D8E0DEBFCDBF0E
S113006011E0A0E6B0E0E6E6F8E002C005900D92EB
S1130070AA35B107D9F721E0AAE5B1E001C01D9284
S1130080A836B207E1F70E94BF030C9431040C9424
S113009000001ABA87E886B980E487B9089597B151
S11300A0892B87B9369A349BFECF8AE18A95F1F77A
S11300B000C024B185B190E0982F8827820F911D4C
S11300C0089589B7846089BF81E08EBD8CED9BE083
S11300D09DBD8CBD089581B381BB929A80E48BBF92
S11300E083E085BF78940895803178F4E82FE6950D
S11300F0E695F0E08370EE0FFF1FEE0FFF1FE6584A
S1130100FF4FE80FF11D8081089580E0089595B3B5
S11301109F70282F207F922B95BBA898AA98A99A04
S113012032E03A95F1F700C0A998EFE8F1E0319791
S1130130F1F700C0000025B32F70F0E18F9FC001DC
S11301401124822B85BBA99A32E03A95F1F700C0BD
S1130150A9988FE99FE00197F1F700C00000089586
S113016095B39F70282F207F922B95BBA89AAA98AD
S1130170A99A32E03A95F1F700C0A998EFE8F1E0C6
S11301803197F1F700C0000025B32F70F0E18F9F85
S1130190C0011124822B85BBA99A32E03A95F1F76C
S11301A000C0A9988FE99FE00197F1F700C0000013
S11301B008958FEF84BB8FE39CE90197F1F700C0AA
S11301C0000082E00E94870088E20E9487008CE0A1
S11301D00E94870086E00E94870081E00E948700D9
S11301E00895CF93DF93EC018881882331F0219621
S11301F00E94B00089918111FBCFDF91CF910895C6
S113020081E00E94870082E00E94870008950E9496
S113021000012FEF84E39CE0215080409040E1F7FF
S113022000C000008AE890E00E94F10080EC0E9487
S1130230870081E990E00E94F1002FEF84E39CE0C5
S1130240215080409040E1F700C000000E9400016E
S11302508AE890E00E94F10080EC0E94870081E926
S113026090E00E94F10008950E94000188E990E066
S11302700E94F10080EC0E94870083EA90E00E94D3
S1130280F100089578940E9434010E946B000E944A
S1130290D9000E9449000E946100089520917A00CB
S11302A030917B0080916A0090916B002817390788
S11302B039F00E9400018BEA90E00E94F100089559
S11302C08AEB90E00E94F10008950E94420110928E
S11302D05D0110925F0110925E0110925B01109219
S11302E05A0110925C0181E0809361008093600068
S11302F08E9A8F9A82B382BB979A8C98949A0E9412
S113030000010E94340108950E944900D79A80E0B8
S113031090E00E944F008F3F91407CF40E940701BF
S1130320DF9A0E9407018BB31BBA86B38F700E94B9
S113033074008B3299F70E94650108951F920F9201
S11303400FB60F9211242F933F934F935F936F93A4
S11303507F938F939F93AF93BF93CF93DF93EF9349
S1130360FF9380915D01882329F080915A018823AD
S113037009F4F7C086B38F700E947400C82F8B32C3
S113038049F40E94650185E090E090935F018093B9
S11303905E01E5C080915E0190915F01823091051C
S11303A009F446C02CF4009759F0019729F1D7C0FD
S11303B08330910509F458C0049709F471C0CFC083
S11303C080EC0E948700E0915E01F0915F01EE0FE6
S11303D0FF1FE05AFE4FD0E0D183C0838BEC90E046
S11303E00E94F10080915E0190915F0101969093CB
S11303F05F0180935E01B5C082EC0E948700E091AA
S11304005E01F0915F01EE0FFF1FE05AFE4FD0E056
S1130410D183C0838BEC90E00E94F10080915E0157
S113042090915F01019690935F0180935E0199C062
S113043084EC0E948700E0915E01F0915F01EE0F71
S1130440FF1FE05AFE4FD0E0D183C0838BEC90E0D5
S11304500E94F10080915E0190915F01019690935A
S11304605F0180935E017DC086EC0E948700E0916D
S11304705E01F0915F01EE0FFF1FE05AFE4FD0E0E6
S1130480D183C0838BEC90E00E94F10080915E01E7
S113049090915F01019690935F0180935E0161C02A
S11304A0CA3209F580EC0E948700C0E6D1E0888159
S11304B00E94B00082EC0E9487008A810E94B000F2
S11304C084EC0E9487008C810E94B00086EC0E941C
S11304D087008E810E94B00084E090E090935F01D9
S11304E080935E013EC0CD33D1F58091600190913F
S11304F0610190937B0080937A000E944E01809169
S11305005D0181111CC081E080935D010E940001A6
S11305108DEC90E00E94F1002FEF89E698E12150E4
S113052080409040E1F700C0000080915E0190910E
S11305305F01019690935F0180935E0112C08091E8
S11305405A01882361F00E94000180915E0190911C
S11305505F01019690935F0180935E0102C00E9447
S11305606501FF91EF91DF91CF91BF91AF919F9181
S11305708F917F916F915F914F913F912F910F9048
S11305800FBE0F901F9018951F920F920FB60F92E7
S113059011242F933F934F935F936F937F938F9384
S11305A09F93AF93BF93EF93FF930E9484018CEDCD
S11305B09BE09DBD8CBDFF91EF91BF91AF919F9149
S11305C08F917F916F915F914F913F912F910F90F8
S11305D00FBE0F901F901895BF92CF92DF92EF92AB
S11305E0FF920F931F93CF93DF931F92CDB7DEB784
S11305F080B390E08095909584FFB6C0BB24B394FB
S113060008E611E00F2EF0E6CF2EF1E0DF2EF02DFC
S11306100F2EF2E6EF2EF0E0FF2EF02D1982B092AD
S11306205C01969A82B382BB0E9400018FED90E038
S11306300E94F10080EC0E94870083EA90E00E940F
S1130640F1008FE99FE00197F1F700C0000086B345
S11306508F700E9474008B3209F486C08336F1F6E1
S113066089818111DBCF0E9400018AEE90E00E9413
S1130670F1009FEFE9E6F8E19150E040F040E1F746
S113068000C000000E940001B0925A0110925F0164
S113069010925E010E9400018AEF90E00E94F10036
S11306A080EC0E94870083EA90E00E94F1002FEF23
S11306B081E19AE7215080409040E1F700C00000BA
S11306C0E0E6F1E0A2E6B0E0219131918D919D91B7
S11306D02817390711F0B0926000E017F107A1F76D
S11306E0809160008823F1F110925F0110925E0105
S11306F00E94000188E091E00E94F10080EC0E94D9
S1130700870083EA90E00E94F100EFEFF1E12AE72D
S1130710E150F0402040E1F700C00000F601808580
S11307209185F70191838083938382839583848366
S1130730978386830E94000182E191E00E94F10088
S113074080EC0E9487008AE191E00E94F100FFEFB3
S113075023ED80E3F15020408040E1F700C0000029
S1130760B9825CCFB9825ACF0F90DF91CF911F919C
S11307700F91FF90EF90DF90CF90BF9008950E946B
S1130780650108E611E0FF24F39480915D0188235C
S1130790E1F3E0E6F1E0A2E6B0E0219131918D9140
S11307A09D912817390711F0F0926100E017F107C5
S11307B0A1F752C0C6E0D0E00E94000187E291E0B8
S11307C00E94F10080EC0E94870081E391E00E9486
S11307D0F100969A82B382BB0E94EC022FEF89E665
S11307E098E1215080409040E1F700C000000E9451
S11307F000018EE391E00E94F10086EC0E948700E4
S113080086E491E00E94F10082B312BA0E94EC02E5
S11308102FEF89E698E1215080409040E1F700C035
S11308200000219749F680915C018111AECF0E94AE
S11308306501ABCF0E9465010E9400018FE491E045
S11308400E94F1002FEF89E698E12150804090400A
S1130850E1F700C0000099CF809161008111AACF17
S1090860E9CFF894FFCF7C
S1130866010101000200030004000100020003006C
S11308760400FFFFFFFFFFFFFFFF3738392F343532
S1130886362A3132332D63303D2B54686566742124
S113089600416C6572742100456E74657220436F65
S11308A66465005F205F205F205F0057524F4E470C
S11308B62050415353574F524400436F727265633D
S11308C6742070617373776F7264002A0056455200
S11308D6594659494E4720504153532E2E2E005304
S11308E66166653A204F50454E005245534554546F
S11308F6494E4720434F44453A0043757272656E2C
S11309067420436F64653A004E657720436F6465CF
S11309163A004348414E47454400535543434553E3
S11309265346554C4C590050524553532054484550
S1130936004C4154434820425554544F4E00544FA2
S1130946204F50454E0054484520534146450052D9
S10D09564553455454494E47000030
S9030000FC
